:1000000006308A00392E0000FF00030E8301A50090
:100010007F08A4000A08AB008A01A40E0408A60009
:100020002008A7002108A8002208A9002308AA0088
:10003000831383128B1D1E280B182F28260884007B
:100040002708A0002808A1002908A2002A08A30068
:100050002B088A00250E8300FF0E7F0E09008A11EF
:100060003128BB08031D4628051E3C28851E3C2858
:100070001130B2070318B30A051A4628851E462810
:100080001130B2020030031C0130B3023B0B5A287E
:10009000051E5028851E50281130AE070318AF0AE0
:1000A000051A5A28851E5A281130AE020030031C4A
:1000B0000130AF020B108A111E280830A100000089
:1000C00087128316871200008312C70D0712031CC4
:1000D0006C288316071683120318712883160712DB
:1000E0008312831687168312871E7428A10B5F283C
:1000F0000000871283168712000007160000000018
:1001000087168312871E8228A1010000071A211476
:10011000871283168712831207128316071283121F
:1001200008008316071600008716000083120712C6
:100130008316071200008312871283168712831218
:100140004408C7005D204508C7005D204608C70079
:100150005D2083160712000087168312871EAE28C3
:100160000000B22800008316071600008312080062
:100170004030C400C501C60191204030C4000530A4
:10018000C5002030C60091202730AF001030AE00EF
:100190002730AD001030AC002730B3001030B20073
:1001A0002730B1001030B0008A11562E0830A1005F
:1001B000000007138316071300008312C40D871372
:1001C000031CE5288316871783120318EA28831671
:1001D00087138312831607178312071FED28A10BBD
:1001E000D8280000071383160713000087170000A4
:1001F000000007178312071FFB28A1010000871BBF
:10020000211407138316071383128713831687138A
:100210008312080083168717000007170000831257
:10022000871383168713000083120713831607139F
:10023000D0308312C400D6200E30C400D6203C0833
:10024000C400D62083168713000007178312071FE8
:10025000272900002B29000083168717000083122E
:100260000800433084008313000803193E29A53099
:10027000A000A00B39290000800B3729080040306E
:10028000C4000930C5004308C600912008000230B0
:10029000C300312140080339C200C208031D53299D
:1002A0001030C3003F21420B58292030C3003F21AA
:1002B0004208023C031D5F294030C3003F21420831
:1002C000033C031D66298030C3003F2108003E081F
:1002D0002C02031D6F293F082D02031995292D08B3
:1002E0003F02031C8129031D79293E082C020318B3
:1002F0008129AC0A0319AD0A2D08C1002C08C000E1
:1003000047213F082D02031C9429031D8B292C082B
:100310003E02031894292C080319AD03AC032D08E1
:10032000C1002C08C0004721672908000230C30023
:10033000312140080339C200C208031DA22901303F
:10034000C3003F21420BA7290230C3003F214208CE
:10035000023C031DAE290430C3003F214208033C88
:10036000031DB5290830C3003F2108003E083002B4
:10037000031DBE293F0831020319E42931083F0259
:10038000031CD029031DC8293E0830020318D029B8
:10039000B00A0319B10A3108C1003008C000962123
:1003A0003F083102031CE329031DDA2930083E020D
:1003B0000318E32930080319B103B0033108C10061
:1003C0003008C0009621B6290800061BF1292E0826
:1003D0000319AF03AE032F08BF002E08BE0067212C
:1003E000E529061FFC29AE0A0319AF0A2F08BF0032
:1003F0002E08BE006721F1290330AF00E830AE00BF
:100400000330AD00E830AC00861B102A3208031917
:10041000B303B2033308BF003208BE00B621042A7A
:10042000861F1B2AB20A0319B30A3308BF00320819
:10043000BE00B621102A0330B300E830B20003300A
:10044000B100E830B0008A11662E831687170000CD
:100450000717000083128713831687130000831287
:10046000071383160713D0308312C400D6200F3031
:10047000C400D6200C30C400D62083168713000099
:1004800007178312071F422A0000462A000083161E
:100490008717000083120800061A582AB8080319A3
:1004A000532A0030542A0130B8006430C30031218F
:1004B000861A642AB90803195F2A0030602A0130BD
:1004C000B9006430C3003121071C752AB908031D27
:1004D000752AB808031D752ABA08031D752A252236
:1004E0001E30BC000A210130BA00071C7C2A390BDF
:1004F0007A2A7C2A380B822A3A0B822A1C30BC00CA
:100500000A21BA018A11672E2D080A3C03189B2A7A
:10051000FF3A031D8F2A2C08E73C03189B2A003062
:10052000AC020830031C0930AD020030AE020830C6
:10053000031C0930AF022D08033C031CA82A031D2D
:10054000A52A2C08E73C031CA82A0830AD07AF07F2
:1005500031080A3C0318BF2AFF3A031DB32A3008AA
:10056000E73C0318BF2A0030B0020830031C0930F2
:10057000B1020030B2020830031C0930B302310866
:10058000033C031CCC2A031DC92A3008E73C031C8A
:10059000CC2A0830B107B3070800A101A201A001CD
:1005A000A3014708031DD72A46080319F12A103072
:1005B000C8000310C40DC50DA00DA30D47082302EC
:1005C000031DE42A46082002031CED2A4608A00267
:1005D000031CA3034708A3020314A10DA20DC80B1B
:1005E000D92A08003D08043C031C022B031DFC2AE9
:1005F0003C08913C031C022B0C30A1000030A200EF
:10060000172B172BE8303C02BE003D08BF0003301B
:10061000031C0430BF023F08C5003E08C400C701E8
:10062000AA30C600CD222208A3002208A20008009A
:100630003F080A3C0318282BFF3A031D232B3E08D2
:10064000DF3C0318282B0030A100A2003D2B3D2BDE
:10065000E8303E02C0003F08C1000330031C0430F4
:10066000C1024108C5004008C400C7012230C600CD
:10067000CD222208A3002208A20008004608A101FA
:1006800045020318462B4508A000522BA001083054
:10069000C700C50DA00D460820020318A000A10D3B
:1006A000C70B492B08004308C5000A30C6003E238B
:1006B000210EC400F030C4054308C5000A30C6004E
:1006C0003E2320084407A100080083168717000076
:1006D0000717000083128713831687130000831205
:1006E000071383160713D0308312C400D620C40129
:1006F000D620C30153232108C300C400D6204108DB
:10070000C30053232108C300C400D6204008C300FF
:10071000532342082104C300C400D6208316871344
:10072000000007178312071F932B0000972B000070
:10073000831687170000831208000519A92BBB0830
:100740000319A42B0030A52B0130BB006430C3007B
:1007500031212F08BF002E08BE0067213308BF00DB
:100760003208BE00B6218422871CCF2B3308BD007F
:100770003208BC00F2222208BD002108BC002F086C
:10078000BF002E08BE0018232208BF002108BE00AB
:100790003C08C0002108C1006030C20065238718F2
:1007A000EA2B3308BD003208BC00F2222208BD004B
:1007B0002108BC002F08BF002E08BE001823220805
:1007C000BF002108BE003C08C0002108C100403025
:1007D000C20065238A11712E831687170000071740
:1007E00000008312871383168713000083120713F8
:1007F00083160713D0308312C400D6200B30C400F8
:10080000D6204108C30053232108C300C400D620CA
:100810004008C300532342082104C300C400D6206B
:100820008030C400D6208316871300000717831278
:10083000071F182C00001C2C0000831687170000CF
:100840008312080005192E2CBB080319292C00302F
:100850002A2C0130BB006430C30031212F08BF00B7
:100860002E08BE0067213308BF003208BE00B62143
:100870008422871C542C3308BD003208BC00F222AD
:100880002208BD002108BC002F08BF002E08BE00B2
:1008900018232208BF002108BE003C08C000210820
:1008A000C1006030C200EC2387186F2C3308BD00F4
:1008B0003208BC00F2222208BD002108BC002F082B
:1008C000BF002E08BE0018232208BF002108BE006A
:1008D0003C08C0002108C1004030C200EC238A114E
:1008E0007C2E0830BF002008C00083168717000048
:1008F00007178312071F7A2C871B0314871F031007
:10090000A10D00008316071383120713BF0B752C6C
:100910008316871700008312871340080319932C4E
:100920008316871383120000831607178312071F8D
:10093000972C0000071383160713000083128713F8
:1009400083168713831208003E0EA0000F30A00507
:100950002008C0004008C1000A30C200A001A10167
:10096000410803104218A007A00CA10CC218A00750
:10097000A00CA10C4219A007A00CA10CC219A00741
:10098000A00CA10C421AA007A00CA10CC21AA0072F
:10099000A00CA10C421BA007A00CA10CC21BA0071D
:1009A000A00CA10C2108BF003E080F392107A100AF
:1009B00008001030C800A001A301C50CC40C031C22
:1009C000E72C4608A0070318A30A4708A307A30CAF
:1009D000A00CA20CA10CC80BDD2C08000130BC003F
:1009E00083168717000007170000831287138316EA
:1009F000871300008312071383160713D030831266
:100A0000C400D6203C08C400D620831687170000F7
:100A1000071700008312071F0B2D871383168713F8
:100A200000008312071383160713D1308312C4000A
:100A3000D620A00171242108BD0083168713000071
:100A400007178312071F222D0000262D0000831692
:100A50008717000083123D08BE00A4242108B501B9
:100A60002108B400B408031D4A2DB508031D4A2D02
:100A70002C08E83C031D402D2D08033C03194A2D8A
:100A80000B30BF00E830BE0067210330AD00E83016
:100A9000AC006E2D3508BD003408BC003D08C50013
:100AA0003C08C400C7012230C600D9242208BF0078
:100AB0002108BE00E8302107A1002208A30003306E
:100AC00003180430A3072308A2002208BD00210850
:100AD000BC002208BF002108BE0067210230BC0014
:100AE00083168717000007170000831287138316E9
:100AF000871300008312071383160713D030831265
:100B0000C400D6203C08C400D620831687170000F6
:100B1000071700008312071F8B2D87138316871377
:100B200000008312071383160713D1308312C40009
:100B3000D620A00171242108BD0083168713000070
:100B400007178312071FA22D0000A62D0000831691
:100B50008717000083123D08A10021081F39B60045
:100B6000B7013608BE00A424B7012108B600B408B6
:100B7000031DD42DB508031DD42D360BD42DB70875
:100B8000031DD42D3008923C031DCA2D3108043CAE
:100B90000319D42D0C30BF009230BE00B6210430B2
:100BA000B1009230B0002B2E3708BD003608BC00D3
:100BB0003508BF003408BE003D08C1003C08C00035
:100BC0004108C5004008C400C701AA30C600D924A6
:100BD0002208C3002108C200E8302107A100220832
:100BE000A300033003180430A3072308A20022083F
:100BF000C1002108C0003F08C3003E08C2004308EE
:100C0000C5004208C400C7010630C600CD22220834
:100C1000C3002108C2004308C5004208C400C70140
:100C20001130C600D9242208A3002208A2002208FD
:100C3000A30021084007A10041080318410FA307A2
:100C40002308A2002208BD002108BC002208BF0022
:100C50002108BE00B6218A11872E0719372E0430CD
:100C6000BC00FA30C3003121BC0B312E25228A1181
:100C70008B2E03081F398300513083168F0090019B
:100C80000F08831203171F109F101F119F110313CA
:100C90001F13003003179E0099019A0183169E01CD
:100CA00083129B0103138D128313B828FF30831620
:100CB000850086008700C03083128B04BB01B80119
:100CC000B9011C30BC000A21BA01E5294C2A380BB5
:100CD000722EB908031D722E8B1583169616831279
:100CE0009D2B8A2EB808031D7D2E390B7D2E8B156A
:100CF000831696168312222C8A2EB808031D882E7E
:100D0000B908031D882E831696128312EE2C8A2EA4
:0A0D1000B801B8012D2E662E630015
:02400E00E43F8D
:00000001FF
;PIC16F690
;CRC=6A76  CREATED="22-Apr-23 10:29"
